:0600000002010002012CC8
:03000B000201945B
:0300130002013AAD
:03001B0002017966
:100100007581077590FF75B0FFC29075303212018E
:1001100048758911758D81758B0CD288D28AD2A8C9
:10012000D2AAD2ABD2A9D2AFD28E80FEE530B43201
:100130000132240AF53012014832E530B41401329C
:10014000940AF53012014832E530B41407753219BB
:1001500075316422B41E0775322675311622B42813
:10016000077532327531C822B4320775323F7531A6
:100170007A2275323F75317A22C28F758D81758BE7
:100180000CD290C28C74009531F58A74009532F5CA
:0B0190008CD28C32C28DC290C28C3227
:00000001FF
