:10000000020058898288838B00EC4D6036E4E0F66C
:1000100008A31DBDFFF31C80F0B800118B00EC4D50
:100020006021E7F609081DBDFFF41C80F189828874
:10003000838B00EC4D600CE493F608A31DBDFFF329
:100040001C80F022E4F5D075813878207A18F60803
:0B005000DAFC12014102000002004433
:10010000C0F9A4B0999282F880908033E4F532F57A
:10011000338A348B358C368D378011E5B030E0046E
:10012000A93577010533E53370020532E536B5327E
:1001300007E537B5330280065002800280DD228059
:10014000CB02029275210075240075250078017993
:10015000007A007B287D0A7C00120019D2B0E521CC
:1001600060030201FE7428A924780029F987A0857C
:1001700024227523007A007B237C007D4612010A2D
:10018000E523B401678000E5B020E0FB752500E5BC
:1001900022B40105752500804EE522B409057525B8
:1001A000018044E522B40205752502803AE522B4B7
:1001B00008057525038030E522B403057525048004
:1001C00026E522B40705752505801CE522B4040543
:1001D0007525068012E522B406057525078008E519
:1001E00022B40503752508752101800F0524E52437
:1001F00024F650028002800375240002028EE52559
:1002000070057527018049E525B40105752709802A
:100210003FE525B402057527028035E525B40305C1
:10022000752708802BE525B404057527038021E593
:1002300025B405057527078017E525B4060575273C
:1002400004800DE525B4070575270680037527058D
:100250007428A927780029F987A08527227523000B
:100260007A007B237C007D4612010AE523B4010F4E
:100270008000E5B020E0FB852224752100800F0579
:1002800025E52524F7500280028003752500020130
:050290005E22020144A2
:00000001FF
