:03000000020100FA
:100100007580FF7590F075A0007589017580387550
:10011000A00175A0007D0212017875800C75A00108
:1001200075A0007D0112017875800175A00175A090
:10013000007D0212017875808075A00175A0007D98
:100140000112017812018CB4FF0280F875800175EC
:10015000A00175A0007D0112017875808075A00155
:1001600075A000F58075A00375A00212018CB4FF84
:10017000FA7D0212017880CC758CEC758A78C28D7C
:10018000D28C308DFDC28CC28DDDED227590F0C217
:1001900090D291D292D2937D01120178E59054F0E1
:1001A000B4F0487590F0D290C291D292D2937D0172
:1001B000120178E59054F0B4F04C7590F0D290D2E2
:1001C00091C292D2937D01120178E59054F0B4F07F
:1001D000507590F0D290D291D292C2937D011201CB
:1001E00078E59054F0B4F05474FF22B4E003743115
:1001F00022B4D003743422B4B003743722B4700331
:10020000742A2274FF22B4E003743222B4D003743F
:100210003522B4B003743822B4700374302274FFF2
:1002200022B4E003743322B4D003743622B4B00392
:10023000743922B4700374232274FF22B4E003746F
:100240004122B4D003744222B4B003744322B47088
:070250000374442274FF2235
:00000001FF
