:1000000075803875A00175A00075800C75A001750C
:10001000A00075800675A00175A00075800175A00F
:100020000175A0007FFFDFFE78007900E9B4006071
:1000300075800175A00175A000748028F58075A0F9
:100040000175A0007580A275A00375A0027580A936
:1000500075A00375A0027580AB75A00375A002752D
:1000600080B375A00375A0027580AF75A00375A05D
:10007000027580B175A00375A0027FFFDFFE08E85E
:10008000B4030302008902002C7800790102002CDD
:1000900075800175A00175A00074C028F58075A059
:1000A0000175A0007580A275A00375A0027580A9D6
:1000B00075A00375A0027580AB75A00375A00275CD
:1000C00080B375A00375A0027580AF75A00375A0FD
:1000D000027580B175A00375A0027FFFDFFE08E8FE
:1000E000B403030200E902002C7800790002002C1E
:00000001FF
